:020000020000FC
:100000000C94F0100C947A110C947A110C947A11CF
:100010000C947A110C947A110C947A110C947A1134
:100020000C947A110C947A110C947A110C947A1124
:100030000C947A110C94CC060C947A110C947A11CD
:100040000C947A110C947A110C947A110C947A1104
:100050000C947A110C94030A0C947A110C947A1172
:100060000C947A110C947A110C947A110C947A11E4
:100070000C947A110C947A110C947A110C94040853
:100080000C947A110C947A110C947A110C947A11C4
:100090000C947A110C947A110C947A110C947A11B4
:1000A0000C947A110C947A11EF93FF93E091000075
:1000B000F0914000FC9907C0FC9A78940995FC9A4D
:1000C000FF91EF910895FE9AFF91EF911895EF93AC
:1000D000FF93E0910200F0914000FD9907C0FD9A66
:1000E00078940995FD9AFF91EF910895FF9AFF91F9
:1000F000EF91189508950102040810204080010036
:1001000002000400080010002000400080000001F0
:100110000002000400080010002000400080002EB3
:100120002EFFFFFFFFFFFFFFFFFFFFFFFFFFFFFFB0
:10013000FFFFFFFFFFFFFFFFF0123FFFFFFFFFFF8B
:10014000FFFFFFFFFFFFFFFFFFFFFFFFFFFFFFF4CA
:10015000567FFFFFFFFFFFFFFFFFFFFFFFFFFFFFD8
:10016000FFFFFFFFFFFFF89ABFFFFFFFFFFFFFFF4B
:10017000FFFFFFFFFFFFFFFFFFFFFFFFFFFCDEFFB3
:10018000FFFFFFFFFFFFFFFFFFFFFFFFFFFFFFFF7F
:10019000FFFFFFFFFFFFFFFFFFFFFFFFFFF00FFF6E
:1001A000FFFFFFFFFFFF0006FFFFFFFFFFFFFFFF57
:1001B000FFFFFFFF0EF0FFFFFFFFFFFF60EEEE6FA0
:1001C000FFFFFFFFFFFFFFFFFFFF00EEF0FFFFFF5E
:1001D000FFFFF6FEFEEE0FFFFFFFFFFFFFFFFFFF3B
:1001E000F0E0EFFE0FFFFFFFFFEFEFEFEE0FFFFF7F
:1001F000FFFFFFFFFFFFF0EFFEFEFE0FFFFFFFFF21
:100200006FFEFEE66FFFFFFFFFFFFFFFFF0FFFFF29
:10021000EFEE0FFFFFFFFEFFFFEFE0FFFFFFFFFF2F
:10022000FFFFFFF0FFFFFFFEFEE0FFFFFFF6FFFF17
:10023000FE0FFFFFFFFFFFFFFFFF6FFFFFFFEFEE70
:10024000E0FFFFFFF0FFFFF0FFFFFFFFFFFFFFFFFB
:10025000FEFFFFFFFFFE0EEE0FFFFFF0FFFF0FFFA1
:10026000FFFFFFFFFFFFFF00FFFFFFFFE0F0EE0FCC
:10027000FFFFF0FFFF0FFFFFFFFFFFFFFF00EEFF9D
:10028000FFFFFF06FFEE0FFFFFFF0FF0FFFFFFFF77
:10029000FFFFFFF0FEEFFFFFFFEF066FEEE0FFFF57
:1002A000FF0FF0FFFFFFFFFFFFFFF0FFEFFFFFFF7C
:1002B000EF0F6FEEE0FFFFFF0FF0FFFFFFFFFFFF0D
:1002C000FFFF0FEFFFFFFFFEF06EE6EE0FFFFFF008
:1002D000E6FFFFFFFFFFFFFFFFF00EFFFFFFFFFE48
:1002E000EE0EEE0FFFFFF0EE0FFFFFFFFFFFFFFF31
:1002F000FFF6F00FFFFFFFE0EEEEE0FFFFFF0E0F57
:10030000FFFFFFFFFFFFFFFFFF6F66FFFFFFE0EF55
:10031000FEE0FFFFFFF0E0FFFFFFFFFFFFFFFFFF3B
:10032000FE0F6FFFFE06FFFFEE0FFFFFF6EE6FFF03
:10033000FFFFFFFFFFFFFFFFFE0FFFE00FFFFF0EBE
:100340000FFFFFFF0E0FFFFFFFFFFFFFFFFFFFFF8E
:10035000F6006F0FFF00FEE0FFFFFFF6E6FFFFFF76
:10036000FFFFFFFFFFFFFFFFFFF66FF0FFEEE0FF75
:10037000FFFFF0E0FFFFFFFFFFFFFFFFFFFFFFF0CA
:1003800000FFF0EE0FE0FFFFFFF0F0FFFFFFFFFFC9
:10039000FFFFFFFFFFFF0FF0FFFF00FFFE0FFFFF5C
:1003A000F6F0FFFFFFFFFFFFF0000FFFFF0EE0FF83
:1003B000FFEEFFFE0FFFFF6FF6FFFFFFFFFFFF06E1
:1003C0006EE000FFF00E0FFEEFFFFE0FFFFF0F0FBE
:1003D000FFFFFFFFFFFF0EE6EFFF000EEEEEEE0F5A
:1003E000FFFE00FFF0FF6FFFFFFFFFFFFFF00EFFBC
:1003F000FFFFEEE00EEE0EFFE0EE000EE0FFFFFF6F
:10040000FFFFFFFFFFF00FFFFFFE0FF00E0EEEE00D
:100410000EEEE00FFFFFFFFFFFFFFFFFFFF000FF0B
:10042000F0FFFFF0E0EE0FF0000FFFFFFFFFFFFF18
:10043000FFFFFFFFFFFF000FFFFFFF0FE0FFFFFFCA
:10044000FFFFFFFFFFFFFFFFFFFFFFFFFFFFFFFFBC
:10045000FFF0FFF0FFFFFFFFFFFFFFFFFFFFFFFFCA
:10046000FFFFFFFFFFFFFFF00FFF0FFFFFFFFFFF8B
:10047000FFFFFFFFFFFFFFFFFFFFFFFFFFF00EEF9C
:10048000FF0FFFFFFFFFFFFFFFFFFFFFFFFFFFFF6C
:10049000FFFFFFFF0EEEEEF0FFFFFFFFFFFFFFFF8E
:1004A000FFFFFFFFFFFFFFFFFFFFF0EEEEEE0FFF8E
:1004B000FFFFFFFFFFFFFFFFFFFFFFFFFFFFFFFF4C
:1004C000FFF0E66EE0FFFFFFFFFFFFFFFFFFFFFF14
:1004D000FFFFFFFFFFFFFFFFF06EE00FFFFFFFFFDB
:1004E000FFFFFFFFFFFFFFFFFFFFFFFFFFFFFFFF1C
:1004F000000FFFFFFFFFFFFFFFFFFFFFFFFFFFFFFB
:10050000FFFFFFFFFFFFFFFFFFFFFFFFFFFFFFFFFB
:10051000FFFFFFFFFFFFFFFFFFFFFFFFFFFFFFFFEB
:10052000FFFFFFFFFFFFFFFFFFFFFFFFFFFFFFFFDB
:10053000FFFFFFFFFFFFFFFFFFFFFFFFFFFFFFFFCB
:10054000FFFFFF00A2B423E622B67001D0113025D0
:10055000120671FFD011601AD01160253100120E01
:10056000C4704470121CC303601E6103225CF51545
:10057000D0143F01123CD01471FFD0142340121C40
:10058000E7A12272E8A12284E9A12296E29E1250FC
:100590006600F615F6073600123CD0147101122AD7
:1005A000A2C4F41E660043016604430266084303C6
:1005B000660CF61E00EED01470FF23343F0100EEEF
:1005C000D0147001233400EED014700123343F01A5
:1005D00000EED01470FF233400EED01473014304F6
:1005E0006300225C23343F0100EED01473FF43FF0D
:1005F0006303225C233400EE80006705680669040B
:10060000611F6510620700EE40E0000040C040003E
:1006100000E04000406040004040600020E00000FA
:10062000C040400000E080004040C00000E02000EA
:100630006040400080E0000040C08000C0600000DA
:1006400040C08000C060000080C040000060C0006A
:1006500080C040000060C000C0C00000C0C00000FA
:10066000C0C00000C0C000004040404000F000009A
:100670004040404000F00000D014663576FF360060
:10068000133800EEA2B48C103C1E7C013C1E7C0191
:100690003C1E7C01235E4B0A237291C000EE710167
:1006A0001350601B6B00D0113F007B01D011700113
:1006B0003025136200EE601BD011700130251374D9
:1006C0008E108DE07EFF601B6B00D0E13F00139029
:1006D000D0E11394D0D17B017001302513864B00FB
:1006E00013A67DFF7EFF3D01138223C03F0123C07F
:1006F0007A0123C080A06D0780D2400475FE4502B8
:10070000650400EEA700F255A804FA33F265F0295B
:100710006D326E00DDE57D05F129DDE57D05F2290F
:10072000DDE5A700F265A2B400EE6A00601900EEF4
:100730003723124EEAACAAEACEAAAAAEE0A0A0E005
:10074000C04040E0E020C0E0E06020E0A0E02020E9
:1007500060402040E080E0E0E0202020E0E0A0E0F9
:10076000E0E020E040A0E0A0E0C080E0E080C080C9
:10077000A040A0A0A202DAB400EEA202DAB413DC18
:10078000680169056A0A6B01652A662BA216D8B44E
:10079000A23ED9B4A202362BA206DAB46B06A21A84
:1007A000D8B4A23ED9B4A206452AA202DAB46B0B91
:1007B000A21ED8B4A23ED9B4A2065560A202DAB4F1
:1007C0006B10A226D8B4A23ED9B4A20676FF462A60
:1007D000A202DAB46B15A22ED8B4A23ED9B4A206F6
:1007E0009560A202DAB46B1AA232D8B4A23ED9B490
:1007F00022426817691B6A206B01A20AD8B4A2368C
:10080000D9B4A202DAB46B06A22AD8B4A20AD9B427
:10081000A2068750472AA202DAB46B0BA22AD8B4E8
:10082000A20ED9B4A206672A87B1472BA202DAB476
:100830006B10A22AD8B4A212D9B4A2066678671F98
:1008400087624718A202DAB46B15A22AD8B4A2169E
:10085000D9B4A2066678671F87634767A202DAB435
:100860006B1AA22AD8B4A21AD9B4A206668C678CD5
:1008700087644718A202DAB4682C69306A346B01C5
:10088000A22AD8B4A21ED9B4A206668C677887655E
:1008900047ECA202DAB46B06A22AD8B4A222D9B4D9
:1008A000A20666E0866E46C0A202DAB46B0BA22AEC
:1008B000D8B4A236D9B4A206660F86664607A2024D
:1008C000DAB46B10A23AD8B4A21ED9B4A3E860007F
:1008D0006130F155A3E9F065A2064030A202DAB416
:1008E0006B15A23AD8B4A216D9B4A3E86689F63338
:1008F000F265A2023001A2063103A2063207A20667
:10090000DAB46B1AA20ED8B4A23ED9B4124813DCE2
:10091000606961886212634564FFA220F355F33376
:10092000A21CF3651210060408C0040000000004B5
:100930004404000AA000000AEAEA0004EC6E000A7F
:10094000248A0004A48600044000000244420008F7
:100950004448000A4A0000004E40000000048000A5
:100960000E0000000004000244480006AAAC000487
:10097000C44E000C248E000E242C0006AAE2000EA9
:100980008E2C00068EAC000E22440006AEAC000693
:10099000AE2C0000400400004004800048400000ED
:1009A000E0E000004240000E26040006AA86000E89
:1009B000AEAA000EACAE00068886000CAAAC000EF3
:1009C0008C8E000E8C88000688A6000AAEAA000E47
:1009D000444E000E444C000AACAA0008888E000E5B
:1009E000EEAA000AEEEA000EAAAE000EAE88000ED5
:1009F000AAAC200EACAA00068E2C000E4444000ABD
:100A0000AAAE000AAAA4000AAEEE000AA4AA000A2E
:100A1000AA44000E248E0006444600084442000CFE
:100A2000444C0004A0000000000E0008400000003C
:100A30006AAE0008CAAE0000688600026AAE000016
:100A40004AEC00068C8800006AA6C008CAAA000406
:100A5000044400040444C008AACA00044446000038
:100A6000CEEA0000CAAA0000EAAE0000CAAC8000CC
:100A70006AA62000AC880000686C0004E446000010
:100A8000AAA60000AAA40000AAEE0000A4AA0000E2
:100A9000AAA6C000E2CE00064C4600044444000C66
:100AA000464C0000C6000006848600068886C00A00
:100AB0000AAE00060EEC004A06AE000A06AE000CB6
:100AC00006AE000406AE00006886C04A0EEC000ABE
:100AD0000EEC000C0EEC000A0444004A0444000C26
:100AE000044400A0EAEA0040EAEA0060EC8E00005C
:100AF00006EC0006CECE004A0EAE000A0EAE000C8A
:100B00000EAE004A0AAE000C0AAE000A0AA6C0A049
:100B1000EAAE00A0AAAE0004E8E40004A8CE000AF1
:100B2000A4E4000CAACCC0024E44800606AE000627
:100B3000044400060EAE00060AAE000E0CAA00E049
:100B4000CAAA000CE000000CC00000040C8E0000DB
:100B50000E8000000E200004EE0000000EE40004F1
:100B6000044400026E620008CEC8000A0A0A0A5A4B
:100B70005A5A5A5F5F5F5F44444444444C4444447F
:100B80004CC444666E6666000C66660008C4446623
:100B90006EE66666666666000CE666666EC00066B1
:100BA0006C0000444C80000008444444430000446E
:100BB0004F0000000F444444474444000F000044E9
:100BC0004F44444447744466676666666730000075
:100BD000037666666FF000000FF66666677666005D
:100BE0000FF000666FF666444FF000666F0000007D
:100BF0000FF444000F666666630000447300000053
:100C000003744400036666666F6666444FF44444AA
:100C100048000000034444FFFFFFFF0000FFFFCC3B
:100C2000CCCCCC33333333FFFF000000EF93FF9382
:100C3000F101420C531C6192E415E9F7F515D9F75F
:100C4000FF91EF910895EF93FF93CF93DF93CC271C
:100C5000DD27220CC91D330CD91D3C0EDBBFF10171
:100C6000E2016C0E7D1E25902992C615E1F7D7157D
:100C7000D1F7DF91CF91FF91EF910895EF93FF931B
:100C8000E4E0F0E421923192FF91EF910895507FDA
:100C9000434F2020383032310000712C05C00F93B3
:100CA00001E0702E0F9100C0EF93FF93AF93BF93BD
:100CB0000F931F932F933F934F935F936F937F9364
:100CC000772D7170F1018201A201262DA0910440BF
:100CD000B09105401D0114966C9114976695703083
:100CE00011F0319101C035913032B0F03052032E05
:100CF0001D012A01622E0E944209460FF0CF7F910A
:100D00006F915F914F913F912F911F910F91BF91E3
:100D1000AF91FF91EF910895EF93FF93E3E9F6E030
:100D2000E30FF11D09941FC01EC01DC01CC01BC0D5
:100D30001AC019C018C017C016C018C014C013C0FC
:100D400012C011C010C00FC00EC00DC00CC00BC02F
:100D50000AC009C008C007C006C005C004C003C05F
:100D600002C001C000C0FF91EF91C9CFFF91EF9188
:100D700012960C901297402F500DB1CF0405080A1F
:100D80005040282078603C30E6063A078207C507C5
:100D90008025001860090006AF93BF93BFB61F926D
:100DA00011246F01A091200AB0910F0A5697A370E9
:100DB000EDEDF6E0EA0FF11D0994000000000000DF
:100DC000E0918840F0918940D7010994ED91EDB907
:100DD000E295F6E48F93EDB9ED91FA95EDB9E295D0
:100DE000D1F77D01EDB9ED9189E0EDB9E295E80E1D
:100DF000F11CEDB9ED9180E4EDB9E29580930B0A19
:100E0000EDB9ED910000EDB9E295FEB380E5EDB9E5
:100E1000ED91FA95EDB9E29539F00000EDB9ED915B
:100E20000000EDB9E29507C0EDB9ED91F4E0EDB940
:100E3000E295E80EF11CEDB9ED91E81AEDB9E295F5
:100E400000000000EDB9ED91F108EDB9E2958F9148
:100E5000EDB9ED91FEBBEDB9E2951F90EDB9ED91C5
:100E6000FF27EDB9E295BF91EDB9BFBEAF91FDB9D6
:100E7000F6011895ED91EDB9E295FAE38F9385E0CF
:100E8000EDB9ED9100000000EDB9E295FA95C1F7DA
:100E90007D01EDB9ED91E80EF11CEDB9E29580E42C
:100EA00080930B0AEDB9ED91FEB380E4EDB9E295C4
:100EB000FA9501F10000EDB9ED9100000000EDB9E7
:100EC000E295000000000000EDB9ED91E81AF1088C
:100ED000EDB9E295FEBBF12D0000EDB9ED918F91DA
:100EE000EDB9E2951F90BFBEEDB9BF91AF91FDB9CD
:100EF000F6011895EDB9ED91F5E0E80EEDB9E29542
:100F0000F11CE2CFED91EDB9E295F5E28F9382E02D
:100F1000000000000000EDB9ED91000000000000AD
:100F200000000000EDB9E295FA9591F77D01E80E19
:100F3000F11C80E4EDB9ED9180930B0AFEB388E2D9
:100F4000FA95EDB9E29539F00000000000000000CC
:100F50000000EDB907C0F8E0E80EF11C0000EDB9A3
:100F600000000000ED91000000000000EDB9E295E6
:100F7000E81AF108FEBBF12D8F91EDB91F90BFBEAD
:100F8000BF91AF91FDB9F6011895ED91EDB9E295DC
:100F9000FEE18F9381E000000000000000000000EF
:100FA000EDB9ED910000000000000000000000001D
:100FB0000000EDB9E295FA9571F77D01E80EF11C9C
:100FC00080E480930B0AEDB9ED91FEB380E2FA95CF
:100FD00031F0000000000000EDB9E29506C0FAE033
:100FE000E80EEDB9E295F11C000000000000E81ADF
:100FF000F108FEBBF12DEDB98F911F90BFBEBF91DF
:10100000AF91FDB9F60118950F930FB70F93EF93BA
:10101000FF931F9211240FB30370E3E1F8E0E00F98
:1010200008F4F395099403C015C01EC027C00091B1
:101030000A0A0F7B00930A0AF89AF998E5E0F0E0B3
:10104000E093290BF0932D0BE0918640F0918740BF
:1010500009952DC00A98F898F99AE1E0F0E0E0933C
:10106000290BF0932D0B23C00A9AF89AF99AE4E21F
:10107000F0E0E093290BF0932D0B19C000910A0AC0
:10108000006400930A0A0DE8E02E00E4F02EF898C0
:10109000F998ECE7FDE000918A40E00FF11D049122
:1010A0000EBBEFEDF1E0E093290BF0932D0B909246
:1010B000290B90922B0B01E00093260B1F90FF91C0
:1010C000EF910F910FBF0F9118950F931F930FE1A1
:1010D00013E000930F0A1093270A09E110E0009330
:1010E0000F0A1093290A03E20093010A0FEB12E0A2
:1010F00000930F0A10932B0A03E00093E605619A10
:1011000000E400930A0A07E010E000930F0A10932E
:101110002D0A029A0DE8E02E00E4F02EF898F998D6
:101120000AE710E0009386401093874000EE11E03C
:101130000093290B10932D0B0FE00093200B01E07F
:101140000093250B04E80093100201E00093430292
:1011500001E01091200B11600093000A1093200B06
:10116000679A669A659A649A0DE0009313012224A7
:1011700005D004E00EBB1F910F910895EF93FF93EC
:101180000F931F932F933F9323E02222E0E8FDE08B
:10119000E20DF11D2491349634913496E20DF11D47
:1011A00005911591E8E8F0E4F894019311932192E8
:1011B0002193319378943F912F911F910F91FF913B
:1011C000EF910895EF93FF93CF93DF930F931F93C6
:1011D0002F933F934F935F93E22DF32DCDE8D0E40F
:1011E000C40DD91D00E4059DC00DD11D1124019130
:1011F000119116952191422F312F519159933A9582
:10120000E1F7C11BD909EF9621964A95A9F75F919D
:101210004F913F912F911F910F91DF91CF91FF91AE
:10122000EF9108950F93FF93EF93BF93AF93E0E98E
:10123000FDE000918A40000FE00FF11DA591B591EE
:10124000022D0295202AEDE8F0E4AE0FBF1F219297
:10125000EA17E9F7FB17D9F7AF91BF91EF91FF912B
:101260000F9108951F93EF93FF930F93F101119145
:101270000191002E06940191102E1F010F91FF91F4
:10128000EF9117C01F93EF93FF930F932F93F101EB
:1012900001910F9301910695119121912191029E47
:1012A000E00DF11D1F0108011F912F910F91FF917A
:1012B000EF91137021F0113011F01F9137C01F9181
:1012C0000BC00F913F912F911F910F91FF91EF91C3
:1012D000F8940C947D110895EF93FF93CF93DF93CF
:1012E0000F931F932F933F9330918B40F101100187
:1012F0001124CDE8D0E4C40DD11D359DC00DD11D04
:101300001124032D122D219129931A95E1F7C21969
:10131000D109C30FD11D0A95A9F73F912F911F91B4
:101320000F91DF91CF91FF91EF910895EF93FF938C
:10133000CF93DF930F931F933F934F935F936F93DD
:101340007F938F938001112480918B40F101CDE830
:10135000D0E4C40DD11D859DC00DD11D112464E0C4
:101360005191412F302F550F20F0762D707F772E21
:1013700004C0762D7F707295772E550F28F0762D4C
:10138000707F7295772A03C0762D7F70772A7992C5
:101390006A9511F464E051913A9529F7C01BD90977
:1013A000C80FD11D4A95F1F68F917F916F915F9192
:1013B0004F913F911F910F91DF91CF91FF91EF914D
:1013C00008950F93EF93FF9308E80093050808E84A
:1013D0000093060803E70093070801E00093E20585
:1013E00008E00093160400E40093020408E0009370
:1013F0001404EDE0F6E600E211920A95E9F7FF9198
:10140000EF910F9108950F930FB70F931F93EF93E1
:10141000FF931F92112410910108009100081F777B
:10142000E1F4043810F5102FFB9910681695169505
:1014300016950770E6EFF0E0E00FF11D0491EDE086
:10144000F6E6E10FF11D1081FA9902C0012B02C0EE
:10145000009501230083FA98FB981F90FF91EF916C
:101460001F910F910FBF0F911895003F41F0003E63
:1014700041F0013E09F0F1CFFA98FB98D4CFFA9AE7
:10148000ECCFFB9AFA98E9CF0F9301E0302A05C020
:101490000F930EEF302201C00F93EF93FF93022DB5
:1014A000422C4694469446940770E6EFF0E0E00F35
:1014B000F11D0490EDE0F6E6E40DF11D40800420FE
:1014C00030FE04C0002D009540224082FF91EF9134
:1014D0000F910895456D756C61746F7200005061D5
:1014E00075736564000020526573756D652000009A
:1014F000204C6F6164200000204465627567200005
:1015000020457869742000004465627567676572DC
:10151000000046353A52657365740A46363A436FA1
:101520006E74696E75650A46373A50617573650A5F
:1015300046383A5374657000504300004E65787425
:101540000000566964656F00456D752E00004D659D
:101550006D6F727900000224063DB7BC03C7DB7BC8
:10156000E46661F33677E61F33EE667DB7BC27E3AA
:10157000DB7B003C050F0B008040201008040201BB
:10158000F999F26227F1F8FF1F1F99F11F8F1FF8D9
:10159000F9FF1244F9F9FF9F1FF9F99E9E9EF88802
:1015A000FE999EF8F8FF8F8822161E26151D241C12
:1015B0001B231A21252D2B2A8F939F9331D08EE444
:1015C0009BE0809386409093874080E09CE18093ED
:1015D0006B2990936C298BEA282E8AE0382E80E0C4
:1015E000482E88E3582E8EE1682E80E0782E0E94E7
:1015F000230683E9282E84E0382E8EE1482E88E3E6
:10160000582E85E0682E83E0782E0E9423068EE116
:10161000282E88E3382E0E943E069F918F910895D0
:101620008F939F93EF93FF93CF93DF9380E090E1AD
:10163000E0E0F8E211920197E9F788E2E0E8F5E1ED
:10164000C8E1D9E29591092E907F9993902D9295BA
:10165000907F99938A95B1F784E4282E85E0382EFF
:101660008EEE482E81E0582EE22DF32DC0E0DAE216
:10167000842D952D059009920197E1F78FE08093D5
:10168000682980E092E08093122990931329DF91DA
:10169000CF91FF91EF919F918F9108950F930091BA
:1016A0006929043019F003950093692900911529DF
:1016B000003019F00A950093152900911629003081
:1016C00019F00A95009316290F910895302008000B
:1016D000EF93FF93CF93DF930F931F932F933F933A
:1016E0004F935F936F937F93ECECF6E170918A4098
:1016F000E70FF11D749120906B2930906C29E0E088
:10170000F8E2CDE8D0E4C20DD91D00918B40039DD5
:10171000C00DD11D112420916829322F22952F70E0
:101720003F7060E258E0019144E0000F10F0122F8A
:1017300001C0132F1295000F10F0122B01C0132BB4
:1017400019934A9591F75A9571F7C70FD11D6A956C
:1017500049F77F916F915F914F913F912F911F9129
:101760000F91DF91CF91FF91EF910895EF93FF9348
:10177000CF93DF930F931F932F933F934F935F93D9
:101780006F937F9370918A407395717060E1769F3B
:10179000702D112420906B2930906C29E0E0F8E244
:1017A000CDE8D0E4C20DD91D00918B40039DC00D42
:1017B000D11D112420916829322F22952F703F705E
:1017C00060E458E0019148E0000F20F0122F1295DC
:1017D000122B03C0132F1295132B19934A95A1F7BF
:1017E0005A9581F7C70FD11D60FF38976A9549F761
:1017F0007F916F915F914F913F912F911F910F9129
:10180000DF91CF91FF91EF9108950F9300916A2995
:10181000083020F4039500936A29FCD200916929CD
:10182000013028F09092692990926A2951DF0F9136
:1018300008950F9303E000936D2902E0202E0E948B
:10184000BE08E4E7F5E124900E94120904E0009349
:101850006B2909E000936C2900E0202E08E3302E6C
:1018600001E0502E01E0402E0FE5602E0E9432096B
:101870000EED202E04E1302E01E0502E08E1402E26
:101880000FE5602E0E944D0623DF0F9108950F9300
:1018900002E000936D29212C0E94120903E0202E02
:1018A0000E94BE0800E000936B2908E000936C29B9
:1018B0000FDF0F91089510916D2912FD20C110FDC9
:1018C0000BC006E7202E0E94440A002D003011F0C4
:1018D000B0DFF1CF9ADFEFCF06E7202E0E94440A57
:1018E000002D003011F0D3DFE6CF0BEE202E0E944A
:1018F000440A002D003059F000916D2902600093D8
:101900006D2900916E290150037000936E2904EF38
:10191000202E0E94440A002D003059F000916D29BC
:10192000026000936D2900916E2903950370009366
:101930006E2905EF202E0E94440A002D003059F038
:1019400000916D29026000936D2900916E2902506B
:10195000037000936E2902EF202E0E94440A002D8E
:10196000003061F000916D29026000936D290091B3
:101970006E2903950395037000936E290AE5202EC6
:101980000E94440A002D003039F000916E29E5E1F3
:10199000FDE0E00FF91D099400916D2901FF8BCF47
:1019A0000D7F00936D291FE506EE202E04E1302EF9
:1019B0000AE2502E05E0402E612E00916E29003083
:1019C00009F462940E944D0600EF202E04E1302EAF
:1019D0000AE2502E07E1402E612E00916E2901305F
:1019E00009F462940E944D0608EF202E04E1302E87
:1019F00003E3502E05E0402E612E00916E29023047
:101A000009F462940E944D0600E0202E05E1302E7C
:101A100003E3502E07E1402E612E00916E29033022
:101A200009F462940E944D0646CF03C004C004C06E
:101A300005C02DDF40CF3FCF03D03DCF0C947A11AE
:101A40000F9307E000936D2922240E94BE08E4E76B
:101A5000F5E124900E94120901E000936B2906E54C
:101A600000936C2900E0202E08E3302E01E0502E78
:101A700001E0402E0FE5602E0E94320908E0202E82
:101A800005E1302E04E1402E01E0502E0FE5602EDE
:101A90000E944D0602E4202E05E1302E0CE0402E7F
:101AA0000EE4502E0FE5602E0E944D0608E4202E15
:101AB00005E1302E04E2402E0EE4502E0FE5602E9C
:101AC0000E944D060EE4202E05E1302E09E3402E43
:101AD00000E0502E0FE5602E0E944D0602E1202E00
:101AE00005E1302E02E0402E00E1502E0FE5602E81
:101AF0000E944D06EDDD5BD06BD00F91089506E797
:101B0000202E0E94440A002D003011F0C0DED3CEFA
:101B100003E0202E0E94440A002D003089F000913D
:101B20006D290F9300916B290F9300916C2978DD3B
:101B300000936C290F9100936B290F9100936D29ED
:101B40000BE0202E0E94440A002D003009F01E7F79
:101B500003E8202E0E94440A002D003009F0116095
:101B60000AE0202E0E94440A002D003021F052D1BC
:101B70001ED02ED0126010FD09C000916A290830D5
:101B800028F4039500936A2945D1126011FD0BC01A
:101B900000916929013038F09092692990926A2960
:101BA00097DD16D004D01D7F10936D2984CE0F933E
:101BB0000FE2402E08E0502E00E0202E0AE2302EE8
:101BC00000E2002E00E7102E0E946C090F9108958C
:101BD0000F9304E2402E06E5502E00E0202E09E28D
:101BE000302E08E0002E00E2102E0E946C090F91AA
:101BF0000895903021F4803E19F08E3E41F04BC1A3
:101C0000E0E0F8E2002409920A94E9F737C1009075
:101C100014290A9400921429000CE0E7F9E2E00D7F
:101C2000F91D21901190109212292092132926C19A
:101C3000609312297093132921C1E0E7F9E2009023
:101C40001429000CE00DF91D109012292090132981
:101C50002192119206940394009214296093122900
:101C6000709313290BC1272E5BD1061649F4E0911E
:101C70001229F09113293296E0931229F093132937
:101C8000FDC0272E4DD10616D9F3E0911229F0910F
:101C900013293296E0931229F0931329EFC0062FEF
:101CA0000F7091F4272E3CD1102C262E229438D17F
:101CB000011449F4E0911229F09113293296E0932E
:101CC0001229F0931329DAC0E6C0272E362E35D11B
:101CD000D5C0272E25D1060E302C2FD1CFC0062FF0
:101CE0000F70E8E7FEE0E00FF91D62956F70099450
:101CF0000FC014C01BC022C029C036C046C054C08B
:101D0000CAC0C9C0C8C0C7C0C6C0C5C05EC0C3C005
:101D1000262E06D1302C272E10D1B0C0262E00D171
:101D2000302C272EFDD0302808D1A8C0262EF8D080
:101D3000302C272EF5D0302000D1A0C0262EF0D098
:101D4000302C272EEDD03024F8D098C0262EE8D0A5
:101D5000302C272EE5D01124300C191CEED00FE0CA
:101D6000202E312CEAD08AC0272EDAD0302C262E15
:101D7000D7D011243018191C272EDFD0012D039540
:101D800001700FE0202ED9D079C0272EC9D01124A0
:101D9000302C3694191CD1D0012D00950170302EB5
:101DA0000FE0202ECAD06AC0262EBAD0302C272EA3
:101DB000B7D011243018191CC0D0012D0095017026
:101DC000302E0FE0202EB9D059C0272EA9D01124D3
:101DD000302C330C191CB1D0012D00950170302E20
:101DE0000FE0202EAAD04AC0062F0F7091F4272EA4
:101DF00097D0102C262E229493D0011449F0E09114
:101E00001229F09113293296E0931229F0931329A5
:101E100035C041C00F936F937F938F939F93AF9380
:101E2000BF93CF93DF93EF93FF93E0E0F8E2A091AD
:101E30001229B0911329EA0FFB1F919181911296FB
:101E4000A0931229B0931329092F02950F70BC019A
:101E50007F70EEE2FFE0E00FF91D0994CACEE8CEF4
:101E6000ECCE01CF0ECF1BCF30CF33CF38CFBCCF8E
:101E700071C075C07DC083C0CEC0FCC01124FF916D
:101E8000EF91DF91CF91BF91AF919F918F917F9112
:101E90006F910F9108950000000000000000000005
:101EA0000000000000000000000000000000000032
:101EB0000000000000000000000000000000000022
:101EC0000000000000000000000000000000000012
:101ED0000000000000000000000000000000000002
:101EE00000000000000000000000000000000000F2
:101EF00000000000000009E600930128BFCFFF9119
:101F0000EF91DF91CF91BF91AF919F918F917F9191
:101F10006F910F910C947D11272E0E941209AECF64
:101F2000EF93FF93E22DEF700E2EE0E0F9E2E00D6B
:101F3000F91D0080FF91EF910895EF93FF93E22D3B
:101F4000EF702E2EE0E0F9E2E20DF91D3082FF91F4
:101F5000EF91089560931029709311298FCF292C48
:101F6000DFDF600D791D609312297093132986CFEE
:101F70000091200A0623272E302EDFDF7FCF1F930C
:101F80002F93A0E0B8E20090102910901129A00D25
:101F9000B11D062F0F70402E062F02950F70202EB8
:101FA000BFDF000C000C000CC0E0D8E2C00DD91D52
:101FB000272EB6DF102C169416941694C10DD91D39
:101FC000002D0770502E0FE0202E392CB6DF00E0D8
:101FD0004914D1F01D91E8E7F5E1E50DF91D2491D3
:101FE0001A0339903124299020242297399229927A
:101FF0002696612C6320611421F4602C6220601409
:1020000009F001E04A94E4CF302E0FE0202E95DF56
:102010002F911F9133CF6E3919F0613AB1F03BCF58
:10202000E8EAF5E1272E7CDFE00DF91D24900E94FF
:10203000480A091449F0E0911229F09113293296C7
:10204000E0931229F093132919CFE8EAF5E1272E3E
:1020500067DFE00DF91D24900E94480A091449F435
:10206000E0911229F09113293296E0931229F0930E
:10207000132904CF062F02950F70E2E4F0E1E00F80
:10208000F91D09940FC028C045C056C004CF78C0C0
:102090008FC001CF00CFFFCEFECEFDCEFCCEFBCE5B
:1020A000FACEF9CE673019F06A3031F0F4CE272E2F
:1020B0003090152942DFE2CE00E003950F70E8EA88
:1020C000F5E1E00FF91D24900E94480A0928A9F3C0
:1020D000272E302E32DFD2CE653129F0683141F023
:1020E0006E3159F0D8CE272E1BDF00921529C6CEAF
:1020F000272E16DF00921629C1CE272E11DF109051
:10210000102920901129100C291C109210292092BE
:102110001129B4CE693209F0BECE272E01DF0FE0BF
:10212000002205E0009EE8E1F1E00E0E1F1E009285
:10213000102910921129A2CE633309F0ACCE272EBC
:10214000EFDE002D002411242224043618F003941D
:102150000456FBCF0A3018F013940A50FBCF01301D
:1021600018F023940150FBCFE0E0F8E23090102902
:1021700040901129E30DF41D0192119221927ECE1F
:10218000653509F088CEE0E0F8E2409010295090E3
:102190001129E40DF51D2224C3DE0192239472154A
:1021A000D8F7420C591C409210295092112966CE42
:1021B000653609F070CEE0E0F8E2409010295090CA
:1021C0001129E40DF51D22243190B7DE23947215F8
:1021D000D8F7420C591C40921029509211294ECE2A
:1021E000F89499249FBE0FEF0DBF0FE70EBF08EDC7
:1021F00013E023E004BF2093800004BF109360002D
:102200000091650000FDFCCF0AE710E0009300405C
:102210001093014000930240109303400E94E10993
:102220000E946508EDE8F0E400E001930395ED30CD
:10223000E1F7F636D1F78FE8282E80E0382E80E0DF
:10224000482E88E2582E85E2682E84E0782E0E947F
:10225000230680E0282E88E2382E8CE4582E84E174
:10226000482E0E94320904E4202E05E0302E0EEEA6
:10227000402E01E0502E0E94DC0A08E0202E0CE1E6
:10228000302E0E94B60B789409E2202E0E94440A58
:10229000002D0030C9F38BEA282E8AE0382E80E02A
:1022A000482E88E3582E8EE1682E80E0782E0E941A
:1022B000230603E0202E08E3302E04E6502E04E12E
:1022C000402E0FE5602E02E1002E06E0102E0E9447
:1022D00096090AE5202E0E94480A002D003029F0B8
:1022E00001EE202E0E94440A00C00C945B0C0E9458
:0C22F000050CEFCFF8940C94F010FFCF19
:00000001FF
